{
  "contractName": "ExampleContract",
  "abi": [
    {
      "inputs": [],
      "name": "myNumber",
      "outputs": [
        {
          "internalType": "uint256",
          "name": "",
          "type": "uint256"
        }
      ],
      "stateMutability": "view",
      "type": "function"
    },
    {
      "inputs": [
        {
          "internalType": "uint256",
          "name": "_number",
          "type": "uint256"
        }
      ],
      "name": "setNumber",
      "outputs": [],
      "stateMutability": "nonpayable",
      "type": "function"
    },
    {
      "inputs": [],
      "name": "doubleNumber",
      "outputs": [],
      "stateMutability": "nonpayable",
      "type": "function"
    },
    {
      "inputs": [
        {
          "internalType": "uint256",
          "name": "_divisor",
          "type": "uint256"
        }
      ],
      "name": "divideNumber",
      "outputs": [],
      "stateMutability": "nonpayable",
      "type": "function"
    }
  ],
  "bytecode": "0x608060405234801561001057600080fd5b5061055c806100206000396000f3fe608060405234801561001057600080fd5b506004361061004c5760003560e01c806323fd0e40146100515780632ac45d9c1461006f5780633fb5c1cb1461008b57806360362514146100a7575b600080fd5b6100596100b1565b60405161006691906101f4565b60405180910390f35b61008960048036038101906100849190610240565b6100b7565b005b6100a560048036038101906100a09190610240565b61015d565b005b6100af6101aa565b005b60005481565b600081036100fa576040517f08c379a00000000000000000000000000000000000000000000000000000000081526004016100f1906102ca565b60405180910390fd5b6000805490508160005461010e9190610348565b600081905550806000541015610159576040517f08c379a0000000000000000000000000000000000000000000000000000000008152600401610150906103eb565b60405180910390fd5b5050565b600081116101a0576040517f08c379a00000000000000000000000000000000000000000000000000000000081526004016101979061047d565b60405180910390fd5b8060008190555050565b60008054905060026000546101bf919061049d565b6000819055508060005410156101d8576101d76104f7565b5b50565b6000819050919050565b6101ee816101db565b82525050565b600060208201905061020960008301846101e5565b92915050565b600080fd5b61021d816101db565b811461022857600080fd5b50565b60008135905061023a81610214565b92915050565b6000602082840312156102565761025561020f565b5b60006102648482850161022b565b91505092915050565b600082825260208201905092915050565b7f43616e6e6f7420646976696465206279207a65726f2e00000000000000000000600082015250565b60006102b460168361026d565b91506102bf8261027e565b602082019050919050565b600060208201905081810360008301526102e3816102a7565b9050919050565b7f4e487b7100000000000000000000000000000000000000000000000000000000600052601260045260246000fd5b7f4e487b7100000000000000000000000000000000000000000000000000000000600052601160045260246000fd5b6000610353826101db565b915061035e836101db565b92508261036e5761036d6102ea565b5b828204905092915050565b7f526573756c7420697320736d616c6c6572207468616e206f726967696e616c2060008201527f6e756d6265722e00000000000000000000000000000000000000000000000000602082015250565b60006103d560278361026d565b91506103e082610379565b604082019050919050565b60006020820190508181036000830152610404816103c8565b9050919050565b7f4e756d626572206d7573742062652067726561746572207468616e207a65726f60008201527f2e00000000000000000000000000000000000000000000000000000000000000602082015250565b600061046760218361026d565b91506104728261040b565b604082019050919050565b600060208201905081810360008301526104968161045a565b9050919050565b60006104a8826101db565b91506104b3836101db565b9250817fffffffffffffffffffffffffffffffffffffffffffffffffffffffffffffffff04831182151516156104ec576104eb610319565b5b828202905092915050565b7f4e487b7100000000000000000000000000000000000000000000000000000000600052600160045260246000fdfea26469706673582212209bd1bd270d21641b4acd5b62aa0c09cb6a5743bc13b355bd1f5839cd63c3e3c064736f6c634300080f0033",
  "immutableReferences": {},
  "source": "pragma solidity ^0.8.0;\n\ncontract ExampleContract {\n    uint256 public myNumber; // public variable to store a number\n\n    // function to set the number\n    function setNumber(uint256 _number) public {\n        require(_number > 0, \"Number must be greater than zero.\"); // require input number to be greater than 0\n        myNumber = _number; // update myNumber with the input number\n    }\n\n    // function to double the number\n    function doubleNumber() public {\n        uint256 oldNumber = myNumber; // store the current value of myNumber\n        myNumber = myNumber * 2; // double the value of myNumber\n        assert(myNumber >= oldNumber); // assert that myNumber has increased or stayed the same\n        // the assert function will revert all changes made to the state if it fails\n    }\n\n    // function to divide the number by a given divisor\n    function divideNumber(uint256 _divisor) public {\n        require(_divisor != 0, \"Cannot divide by zero.\"); // require the divisor to not be 0\n        uint256 oldNumber = myNumber; // store the current value of myNumber\n        myNumber = myNumber / _divisor; // divide myNumber by the input divisor\n        if (myNumber < oldNumber) {\n            revert(\"Result is smaller than original number.\"); // if the result is smaller than the original number, revert and return an error message\n            // the revert function will undo all changes made to the state and return an error message\n        }\n    }\n}\n",
  "sourcePath": "/Users/macbook/Desktop/metacrafters/contracts/FinalContract.sol",
  "compiler": {
    "name": "solc",
    "version": "0.8.15+commit.e14f2714.Emscripten.clang"
  },
  "schemaVersion": "3.4.8",
  "updatedAt": "2023-02-14T23:54:03.774Z",
  "devdoc": {
    "kind": "dev",
    "methods": {},
    "version": 1
  },
  "userdoc": {
    "kind": "user",
    "methods": {},
    "version": 1
  }
}