{
  "contractName": "FinalContract",
  "abi": [
    {
      "inputs": [],
      "name": "Number",
      "outputs": [
        {
          "internalType": "uint256",
          "name": "",
          "type": "uint256"
        }
      ],
      "stateMutability": "view",
      "type": "function"
    },
    {
      "inputs": [
        {
          "internalType": "uint256",
          "name": "_number",
          "type": "uint256"
        }
      ],
      "name": "setNumber",
      "outputs": [],
      "stateMutability": "nonpayable",
      "type": "function"
    },
    {
      "inputs": [],
      "name": "doubleNumber",
      "outputs": [],
      "stateMutability": "nonpayable",
      "type": "function"
    },
    {
      "inputs": [
        {
          "internalType": "uint256",
          "name": "_divisor",
          "type": "uint256"
        }
      ],
      "name": "divideNumber",
      "outputs": [],
      "stateMutability": "nonpayable",
      "type": "function"
    }
  ],
  "bytecode": "0x608060405234801561001057600080fd5b5061055c806100206000396000f3fe608060405234801561001057600080fd5b506004361061004c5760003560e01c80632ac45d9c146100515780633fb5c1cb1461006d5780636036251414610089578063624de72514610093575b600080fd5b61006b60048036038101906100669190610216565b6100b1565b005b61008760048036038101906100829190610216565b610157565b005b6100916101a4565b005b61009b6101d5565b6040516100a89190610252565b60405180910390f35b600081036100f4576040517f08c379a00000000000000000000000000000000000000000000000000000000081526004016100eb906102ca565b60405180910390fd5b600080549050816000546101089190610348565b600081905550806000541015610153576040517f08c379a000000000000000000000000000000000000000000000000000000000815260040161014a906103eb565b60405180910390fd5b5050565b6000811161019a576040517f08c379a00000000000000000000000000000000000000000000000000000000081526004016101919061047d565b60405180910390fd5b8060008190555050565b60008054905060026000546101b9919061049d565b6000819055508060005410156101d2576101d16104f7565b5b50565b60005481565b600080fd5b6000819050919050565b6101f3816101e0565b81146101fe57600080fd5b50565b600081359050610210816101ea565b92915050565b60006020828403121561022c5761022b6101db565b5b600061023a84828501610201565b91505092915050565b61024c816101e0565b82525050565b60006020820190506102676000830184610243565b92915050565b600082825260208201905092915050565b7f43616e6e6f7420646976696465206279207a65726f2e00000000000000000000600082015250565b60006102b460168361026d565b91506102bf8261027e565b602082019050919050565b600060208201905081810360008301526102e3816102a7565b9050919050565b7f4e487b7100000000000000000000000000000000000000000000000000000000600052601260045260246000fd5b7f4e487b7100000000000000000000000000000000000000000000000000000000600052601160045260246000fd5b6000610353826101e0565b915061035e836101e0565b92508261036e5761036d6102ea565b5b828204905092915050565b7f526573756c7420697320736d616c6c6572207468616e206f726967696e616c2060008201527f6e756d6265722e00000000000000000000000000000000000000000000000000602082015250565b60006103d560278361026d565b91506103e082610379565b604082019050919050565b60006020820190508181036000830152610404816103c8565b9050919050565b7f4e756d626572206d7573742062652067726561746572207468616e207a65726f60008201527f2e00000000000000000000000000000000000000000000000000000000000000602082015250565b600061046760218361026d565b91506104728261040b565b604082019050919050565b600060208201905081810360008301526104968161045a565b9050919050565b60006104a8826101e0565b91506104b3836101e0565b9250817fffffffffffffffffffffffffffffffffffffffffffffffffffffffffffffffff04831182151516156104ec576104eb610319565b5b828202905092915050565b7f4e487b7100000000000000000000000000000000000000000000000000000000600052600160045260246000fdfea26469706673582212202f6c0b0198b46698ead1f9f50691695619cb7a3d85ba1d18a8d0928548e3961764736f6c634300080f0033",
  "immutableReferences": {},
  "source": "//SPDX-License-Identifier: UNLICENSED\npragma solidity ^0.8.0;\n\ncontract FinalContract {\n    uint256 public Number;\n\n    // public variable to store a number\n\n    // function to set the number\n    function setNumber(uint256 _number) public {\n        require(_number > 0, \"Number must be greater than zero.\"); // require input number to be greater than 0\n        Number = _number; // update myNumber with the input number\n    }\n\n    // function to double the number\n    function doubleNumber() public {\n        uint256 oldNumber = Number; // store the current value of myNumber\n        Number = Number * 2; // double the value of myNumber\n        assert(Number >= oldNumber); // assert that myNumber has increased or stayed the same\n        // the assert function will revert all changes made to the state if it fails\n    }\n\n    // function to divide the number by a given divisor\n    function divideNumber(uint256 _divisor) public {\n        require(_divisor != 0, \"Cannot divide by zero.\"); // require the divisor to not be 0\n        uint256 oldNumber = Number; // store the current value of myNumber\n        Number = Number / _divisor; // divide myNumber by the input divisor\n        if (Number < oldNumber) {\n            revert(\"Result is smaller than original number.\"); // if the result is smaller than the original number, revert and return an error message\n            // the revert function will undo all changes made to the state and return an error message\n        }\n    }\n}\n",
  "sourcePath": "/Users/macbook/Desktop/metacrafters/contracts/FinalContract.sol",
  "compiler": {
    "name": "solc",
    "version": "0.8.15+commit.e14f2714.Emscripten.clang"
  },
  "schemaVersion": "3.4.8",
  "updatedAt": "2023-02-15T00:00:25.898Z",
  "devdoc": {
    "kind": "dev",
    "methods": {},
    "version": 1
  },
  "userdoc": {
    "kind": "user",
    "methods": {},
    "version": 1
  }
}