{
  "contractName": "HelloWorld",
  "abi": [
    {
      "inputs": [
        {
          "internalType": "uint256",
          "name": "_new",
          "type": "uint256"
        }
      ],
      "name": "updateNum",
      "outputs": [],
      "stateMutability": "nonpayable",
      "type": "function"
    },
    {
      "inputs": [],
      "name": "getNum",
      "outputs": [
        {
          "internalType": "uint256",
          "name": "_num",
          "type": "uint256"
        }
      ],
      "stateMutability": "view",
      "type": "function"
    },
    {
      "inputs": [
        {
          "internalType": "uint256",
          "name": "a",
          "type": "uint256"
        },
        {
          "internalType": "uint256",
          "name": "b",
          "type": "uint256"
        }
      ],
      "name": "numadditon",
      "outputs": [
        {
          "internalType": "uint256",
          "name": "",
          "type": "uint256"
        }
      ],
      "stateMutability": "pure",
      "type": "function"
    }
  ],
  "bytecode": "0x6080604052602060005534801561001557600080fd5b50610266806100256000396000f3fe608060405234801561001057600080fd5b50600436106100415760003560e01c806367e0badb1461004657806369fd7a7614610064578063f6bb43b914610094575b600080fd5b61004e6100b0565b60405161005b91906100f2565b60405180910390f35b61007e6004803603810190610079919061013e565b6100b9565b60405161008b91906100f2565b60405180910390f35b6100ae60048036038101906100a9919061017e565b6100cf565b005b60008054905090565b600081836100c791906101da565b905092915050565b8060008190555050565b6000819050919050565b6100ec816100d9565b82525050565b600060208201905061010760008301846100e3565b92915050565b600080fd5b61011b816100d9565b811461012657600080fd5b50565b60008135905061013881610112565b92915050565b600080604083850312156101555761015461010d565b5b600061016385828601610129565b925050602061017485828601610129565b9150509250929050565b6000602082840312156101945761019361010d565b5b60006101a284828501610129565b91505092915050565b7f4e487b7100000000000000000000000000000000000000000000000000000000600052601160045260246000fd5b60006101e5826100d9565b91506101f0836100d9565b9250827fffffffffffffffffffffffffffffffffffffffffffffffffffffffffffffffff03821115610225576102246101ab565b5b82820190509291505056fea2646970667358221220e8c9375d8f526179ddb2b92ef76f8feacfc1ea70790fa7a2f5ca342a699304ad64736f6c634300080f0033",
  "immutableReferences": {},
  "source": "\n// SPDX-License-Identifier: MIT\n// compiler version must be greater than or equal to 0.8.17 and less than 0.9.0\npragma solidity ^0.8.15;\n\ncontract HelloWorld {\n\nuint private num = 32;\nfunction updateNum(uint _new) public {\n    num = _new;\n}\n\nfunction getNum() public view returns(uint _num) {\n    return num;\n}\n\nfunction numadditon(uint a , uint b) public pure returns(uint) {\n    return a + b;\n}\n\n}\n",
  "sourcePath": "/Users/macbook/Desktop/metacrafters/contracts/PureView.sol",
  "compiler": {
    "name": "solc",
    "version": "0.8.15+commit.e14f2714.Emscripten.clang"
  },
  "schemaVersion": "3.4.8",
  "updatedAt": "2023-02-14T23:41:48.046Z",
  "devdoc": {
    "kind": "dev",
    "methods": {},
    "version": 1
  },
  "userdoc": {
    "kind": "user",
    "methods": {},
    "version": 1
  }
}